:100000000C942A000C9447000C9447000C94470071
:100010000C9447000C9447000C9447000C94470044
:100020000C9447000C9447000C9447000C94470034
:100030000C9447000C9447000C9447000C94470024
:100040000C9447000C9447000C9447000C94470014
:100050000C94470011241FBECFE5D8E0DEBFCDBF12
:1000600010E0A0E6B0E0E0E3F5E002C005900D92FC
:10007000AE37B107D9F720E0AEE7B0E001C01D927E
:10008000A438B207E1F70E9472000C9496020C9417
:1000900000000F931F93CF93DF93082F162F81E05B
:1000A00090E00E946901EC010E9425016EE670E07B
:1000B000CE010E941801E199FECF612F70E07FBB55
:1000C0006EBB0DBBE29AE19A42E061E0CE010E9474
:1000D000450166E770E0CE01DF91CF911F910F914E
:1000E0000C9418011F93CF93DF9360916D0081E012
:1000F000860F80936D0080916C000E94490010E093
:1001000080916C009FEF980F90936C00882309F406
:1001100063C060916D0081E0860F80936D00C12FF8
:10012000D0E0FE01E158FF4F80810E9449006091BC
:100130006D0081E0860F80936D00FE01E559FF4F51
:1001400080810E94490060916D0081E0860F80935C
:100150006D00FE01E659FF4F80810E9449006091C9
:100160006D0081E0860F80936D00FE01E258FF4F25
:1001700080810E94490060916D0081E0860F80932C
:100180006D00FE01E759FF4F80810E944900609198
:100190006D0081E0860F80936D00FE01E859FF4FEE
:1001A00080810E94490060916D0081E0860F8093FC
:1001B0006D00FE01E959FF4F80810E944900609166
:1001C0006D0081E0860F80936D00CA59DF4F8881F2
:1001D0000E9449001F5F94CF80E090E0DF91CF91B3
:1001E0001F910895C29A84E08A95F1F7C2988BE234
:1001F00091E00197F1F700C000000895CF93DF93DD
:100200001F92CDB7DEB7962F907F9BBB882311F04E
:10021000C09A01C0C098C19869830E94F2006981A8
:100220006295607F6BBB0F90DF91CF910C94F200D1
:10023000CF93DF93EB016991662321F081E00E9467
:10024000FE00F9CFDF91CF9108958FEF8ABB87BB76
:10025000C2988FE697E10197F1F700C0000068E2CD
:1002600080E00E94FE006EE080E00E94FE0061E0FF
:1002700080E00E94FE008FE697E10197F1F700C051
:10028000000062E080E00C94FE00CF93DF9300D08A
:1002900000D0CDB7DEB780E8898380EC8A8384E91B
:1002A0008B8384ED8C836150FE01E40FF11D80810E
:1002B000680F80E00E94FE008BE291E00197F1F769
:1002C00000C000000F900F900F900F90DF91CF9122
:1002D0000895CF93DF938230910510F482E090E08F
:1002E000E0918200F091830020E030E0C0E0D0E0B7
:1002F000309711F14081518148175907C0F04817D4
:10030000590761F482819381209719F09B838A8336
:100310002BC0909383008093820026C02115310565
:1003200019F04217530718F49A01BE01DF01EF01DB
:100330000280F381E02DDCCF2115310509F1281B66
:10034000390B2430310590F412968D919C911397BE
:100350006115710521F0FB019383828304C09093A2
:10036000830080938200FD01329644C0FD01E20FBC
:10037000F31F81939193225031092D933C933AC0FE
:100380002091800030918100232B41F42091620064
:1003900030916300309381002093800020916000B1
:1003A000309161002115310541F42DB73EB74091E0
:1003B000640050916500241B350BE0918000F091A2
:1003C0008100E217F307A0F42E1B3F0B2817390713
:1003D00078F0AC014E5F5F4F2417350748F04E0FA1
:1003E0005F1F50938100409380008193919302C0DE
:1003F000E0E0F0E0CF01DF91CF9108950F931F93DC
:10040000CF93DF93009709F48CC0FC0132971382DD
:10041000128200918200109183000115110581F470
:1004200020813181820F931F2091800030918100C3
:100430002817390779F5F0938100E093800071C0A7
:10044000D80140E050E0AE17BF0750F412962D914E
:100450003C911397AD012115310509F1D901F3CF75
:100460009D01DA013383228360817181860F971F9A
:100470008217930769F4EC0128813981260F371F11
:100480002E5F3F4F318320838A819B8193838283B8
:10049000452B29F4F0938300E093820042C0139629
:1004A000FC93EE931297ED01499159919E01240F0F
:1004B000351FE217F30771F480819181840F951F36
:1004C000029611969C938E938281938113969C93AE
:1004D0008E931297E0E0F0E0D80112968D919C91F6
:1004E0001397009719F0F8018C01F6CF8D919C912C
:1004F00098012E5F3F4F820F931F20918000309113
:1005000081002817390769F4309729F41092830085
:100510001092820002C01382128210938100009315
:100520008000DF91CF911F910F910895F894FFCF34
:10053000000084002000E680DC40A2130160737498
:0E0540006172742E2E00646F6E652E2E000008
:00000001FF
