S00C0000736369642E7372656375
S11300000C942A000C9447000C9447000C9447006D
S11300100C9447000C9447000C9447000C94470040
S11300200C9447000C9447000C9447000C94470030
S11300300C9447000C9449000C946E000C944700F7
S11300400C9447000C9447000C9447000C94470010
S11300500C94470011241FBECFE5D8E0DEBFCDBF0E
S113006010E0A0E6B0E0ECE6F8E002C005900D92E6
S1130070AE36B107D9F720E0AEE6B0E001C01D927C
S1130080A837B207E1F70E9440020C9434040C94A0
S113009000001F920F920FB60F9211242F936F93AB
S11300A07F938F939F93EF93FF9380916F002CB175
S11300B06FE10E948A02E0917200F0917300E90FEF
S11300C0F11D2083FF91EF919F918F917F916F910B
S11300D02F910F900FBE0F901F9018951F920F92A3
S11300E00FB60F9211248F939F93EF93FF9380E0A9
S11300F090916E00891750F4E0917000F0917100B6
S1130100E80FF11D90819CB98F5FF2CFFF91EF91C1
S11301109F918F910F900FBE0F901F901895CF93C2
S1130120DF93EC0105960E94ED011C82DF91CF91D3
S113013008958F929F92AF92BF92CF92DF92EF92E7
S1130140FF920F931F93CF93DF93CDB7DEB728971A
S11301500FB6F894DEBF0FBECDBF8C01DB018C91CE
S1130160F801858362E084810E948901D801119697
S11301709C938E9368E014968C910E948901F801F7
S113018093838283F48028E0E22EFF2009F445C0A3
S1130190F3E0FF16E9F0FF1558F081E0F81699F046
S11301A0A2E0FA1222C048E050E068E170E019C011
S11301B0B4E0FB1691F0E5E0FE1217C048E050E011
S11301C060E070E00EC048E050E060E270E009C01A
S11301D048E050E060E170E004C048E050E068E0CE
S11301E070E0CE0101960E940304EF2DF0E0E1508F
S11301F0F048EE0FFF1FD80112968D919C91139732
S1130200E80FF91FA081B181FE0131968E2D019076
S11302100D928A95E1F7FA94B8CF5801B5E0AB0E88
S1130220B11C42E061E0C5010E940D02C12CD12C39
S1130230D80114962C9130E0C216D3060CF5460171
S1130240880C991CE12CF12CD8011296ED91FC91AB
S11302501397E80DF91D0190F081E02DEE0DFF1DBF
S113026040E16081C5010E943102BFEFEB1AFB0A35
S1130270E8E0EE16F10441F7FFEFCF1ADF0AD8CF1A
S113028028960FB6F894DEBF0FBECDBFDF91CF9195
S11302901F910F91FF90EF90DF90CF90BF90AF90A0
S11302A09F908F9008950F931F93CF938C01C42F29
S11302B0C9014330C1F048F4413081F04230F1F4D7
S11302C048E050E068E170E017C0443089F0453000
S11302D0A9F448E050E060E070E00EC048E050E06F
S11302E060E270E009C048E050E060E170E004C002
S11302F048E050E068E070E00E941304F801848153
S11303008C1708F4C483CF911F910F910895CB01EA
S11303100895AF92BF92CF92DF92EF92FF920F9324
S11303201F93CF93DF93C62EC82FD0E0CE01880F42
S1130330991F0E9496025C018C01E12CF12CD12CB6
S1130340EC16FD065CF4C6010E949602F801819346
S113035091938F01FFEFEF1AFF0AF2CFC501DF91EE
S1130360CF911F910F91FF90EF90DF90CF90BF90AE
S1130370AF900895C29A84E08A95F1F7C2988BE20F
S113038091E00197F1F700C000000895CF93DF9347
S11303901F92CDB7DEB7962F907F9BBB882311F0B9
S11303A0C09A01C0C098C19869830E94BA0169814A
S11303B06295607F6BBB0F90DF91CF910C94BA0173
S11303C0CF93DF93EB016991662321F081E00E94D2
S11303D0C601F9CFDF91CF9108958FEF8ABB87BB18
S11303E0C2988FE697E10197F1F700C0000068E238
S11303F080E00E94C6016EE080E00E94C60161E0D8
S113040080E00E94C6018FE697E10197F1F700C0F2
S1130410000062E080E00C94C601CF93DF9300D02B
S113042000D0CDB7DEB780E8898380EC8A8384E985
S11304308B8384ED8C836150FE01E40FF11D808178
S1130440680F80E00E94C6018BE291E00197F1F70A
S113045000C000000F900F900F900F90DF91CF918C
S11304600895CF93DF93EC01862F50E0BE0190E016
S11304700E94C303BE01CE01DF91CF910C94E00131
S1130480EF92FF920F931F93CF93DF93CDB7DEB715
S113049028970FB6F894DEBF0FBECDBF81E090E081
S11304A00E949602BC0181E090E00E9487017C01D9
S11304B00E94ED0186E090E00E949602BC0186E075
S11304C090E00E9487018C010E948F0088E0E6E69C
S11304D0F0E0DE01119601900D928A95E1F79E01FC
S11304E02F5F3F4F41E0B701C8010E945301B7019C
S11304F0C8010E94990081E090E028960FB6F89414
S1130500DEBF0FBECDBFDF91CF911F910F91FF9042
S1130510EF900895991B79E004C0991F961708F08D
S1130520961B881F7A95C9F780950895CF93DF931A
S11305308230910510F482E090E0E0917600F09131
S1130540770020E030E0C0E0D0E0309711F1408146
S1130550518148175907C0F04817590761F482813F
S11305609381209719F09B838A832BC09093770003
S11305708093760026C02115310519F042175307E0
S113058018F49A01BE01DF01EF010280F381E02D2E
S1130590DCCF2115310509F1281B390B2430310535
S11305A090F412968D919C9113976115710521F029
S11305B0FB019383828304C0909377008093760039
S11305C0FD01329644C0FD01E20FF31F8193919324
S11305D0225031092D933C933AC0209174003091FC
S11305E07500232B41F42091620030916300309315
S11305F075002093740020916000309161002115F2
S1130600310541F42DB73EB7409164005091650027
S1130610241B350BE0917400F0917500E217F30789
S1130620A0F42E1B3F0B2817390778F0AC014E5F5E
S11306305F4F2417350748F04E0F5F1F5093750026
S1130640409374008193919302C0E0E0F0E0CF0105
S1130650DF91CF9108950F931F93CF93DF9300976A
S113066009F48CC0FC013297138212820091760047
S1130670109177000115110581F420813181820FD9
S1130680931F20917400309175002817390779F56C
S1130690F0937500E093740071C0D80140E050E01D
S11306A0AE17BF0750F412962D913C911397AD01EC
S11306B02115310509F1D901F3CF9D01DA01338305
S11306C0228360817181860F971F8217930769F4D3
S11306D0EC0128813981260F371F2E5F3F4F31836C
S11306E020838A819B8193838283452B29F4F09311
S11306F07700E093760042C01396FC93EE93129732
S1130700ED01499159919E01240F351FE217F3071A
S113071071F480819181840F951F029611969C93A8
S11307208E938281938113969C938E931297E0E02B
S1130730F0E0D80112968D919C911397009719F0CF
S1130740F8018C01F6CF8D919C9198012E5F3F4F5B
S1130750820F931F20917400309175002817390778
S113076069F4309729F4109277001092760002C051
S1130770138212821093750000937400DF91CF915D
S11307801F910F9108954532510520F4423010F025
S11307900C94CE03FB011082CB010895BB274A3091
S11307A031F4992322F4BDE2909581959F4F0C94E6
S11307B0DA03BB27FB015527AA27880F991FAA1F15
S11307C0A41710F0A41B83955051B9F7A05DAA3368
S11307D008F0A95DA193009779F7B111B193119233
S11307E0CB010C94F303DC01FC01672F7191772397
S11307F0E1F7329704C07C916D9370836291AE17D8
S1130800BF07C8F30895DC01CB01FC01E199FECFD9
S113081006C0FFBBEEBBE09A31960DB20D9241507B
S11308205040B8F70895DC01A40FB51F4150504063
S113083048F0CB01840F951F2E910E94240441504F
S11308405040D0F70895262FE199FECF9FBB8EBB71
S1130850E09A01970DB2021631F02DBB0FB6F89451
S10F0860E29AE19A0FBE0895F894FFCFCD
S111086C0000780020000013A20040DC80E6AB
S9030000FC
